:0400000015EF0EF0FA
:100F00000001000A006400E8031027280C010620F5
:100F100020202020202020202020202020202020D1
:100F200020202020202020202020202020202000E1
:100F3000554E494D494320205445434C41444F2090
:100F4000006E756C6C20706F696E746572006578E8
:100F500063657074696F6E00253031750023002A57
:100F60000041004200430044000089808992899436
:100F7000899680AA18D0010E386E780E0D6E000E7C
:100F80000E6E580E0F6E0F0E106E38C011F0126AF2
:100F900024EC09F0780E096E000E0A6E7BEC0DF061
:100FA00000D080BAFED780AE18D0020E386E780E10
:100FB0000D6E000E0E6E580E0F6E0F0E106E38C0B6
:100FC00011F0126A24EC09F0780E096E000E0A6E18
:100FD0007BEC0DF000D080BEFED780AC18D0030EA5
:100FE000386E780E0D6E000E0E6E580E0F6E0F0ED0
:100FF000106E38C011F0126A24EC09F0780E096EF8
:10100000000E0A6E7BEC0DF000D080BCFED782A4EF
:101010000BD00B0E386E610E096E0F0E0A6E7BEC54
:101020000DF000D082B4FED7899089828994899688
:1010300080AA18D0040E386E780E0D6E000E0E6E5B
:10104000580E0F6E0F0E106E38C011F0126A24EC9D
:1010500009F0780E096E000E0A6E7BEC0DF000D0E0
:1010600080BAFED780AE18D0050E386E780E0D6EA1
:10107000000E0E6E580E0F6E0F0E106E38C011F06F
:10108000126A24EC09F0780E096E000E0A6E7BECF1
:101090000DF000D080BEFED780AC18D0060E386EA2
:1010A000780E0D6E000E0E6E580E0F6E0F0E106E37
:1010B00038C011F0126A24EC09F0780E096E000EA7
:1010C0000A6E7BEC0DF000D080BCFED782A40BD062
:1010D0000C0E386E630E096E0F0E0A6E7BEC0DF06F
:1010E00000D082B4FED7899089928984899680AA9B
:1010F00018D0070E386E780E0D6E000E0E6E580E5C
:101100000F6E0F0E106E38C011F0126A24EC09F049
:10111000780E096E000E0A6E7BEC0DF000D080BADE
:10112000FED780AE18D0080E386E780E0D6E000E09
:101130000E6E580E0F6E0F0E106E38C011F0126A40
:1011400024EC09F0780E096E000E0A6E7BEC0DF0AF
:1011500000D080BEFED780AC18D0090E386E780E55
:101160000D6E000E0E6E580E0F6E0F0E106E38C004
:1011700011F0126A24EC09F0780E096E000E0A6E66
:101180007BEC0DF000D080BCFED782A40BD00D0EFE
:10119000386E650E096E0F0E0A6E7BEC0DF000D0F6
:1011A00082B4FED7899089928994898680AA0BD0CF
:1011B0000E0E386E5F0E096E0F0E0A6E7BEC0DF090
:1011C00000D080BAFED780AE18D0000E386E780EF0
:1011D0000D6E000E0E6E580E0F6E0F0E106E38C094
:1011E00011F0126A24EC09F0780E096E000E0A6EF6
:1011F0007BEC0DF000D080BEFED780AC0BD00F0E84
:10120000386E5D0E096E0F0E0A6E7BEC0DF000D08D
:1012100080BCFED782A40DD0100E386E670E096E0A
:101220000F0E0A6E7BEC0DF000D082A402D0FDD729
:1012300000D0FF0E206E8A0EE82EFED7202EFCD79F
:1012400000D0385012001200110E176E000E186EEA
:1012500017D1250E1F18D8B409D00DC0D9FF0EC064
:10126000DAFF1FC0DFFF0D4A0E2A0AD1000E1E6EE4
:10127000000E1D6E000E196E05D019840F4A102A3B
:1012800001D00BD00FC0F6FF10C0F7FF0800F550DB
:10129000300AD8B4F2D701D0F5D70FC0F6FF10C08E
:1012A000F7FF0800F5508AEC0EF0D8A03AD0000EF7
:1012B0001E6E000E1D6E00D01DC001F01EC002F09B
:1012C000000E046E0A0E036E50EC0EF001C01DF00D
:1012D00002C01EF0D00E136EFF0E146E0FC0F6FF8C
:1012E00010C0F7FF0800F550156E166A135015264A
:1012F0001450162215501D2616501E220F4A102A71
:101300000FC0F6FF10C0F7FF0800F5508AEC0EF092
:10131000D8A007D0D1D705D0C1D0B2D0C00E1912F5
:1013200011D00FC0F6FF10C0F7FF0F4A102A0800B7
:10133000F5CF1FF01F50000AD8B4B0D0750AD8B44A
:10134000EDD79ED017C0D9FF18C0DAFFDECF1AF054
:10135000DDCF1BF0020E1726000E1822010E1F6EA5
:10136000050E1F18D8B416D001D014D01F50020D8E
:10137000010EF324F66E0F0EF420F76E0900F550FF
:101380001A5C0900F5501B58D8A004D001D002D037
:101390001F2AE6D7800E1FBE7F0E136E1D501F5CE6
:1013A0001E50800A1358D8B007D01F501D5E000E83
:1013B0001FBEFF0E1E5A05D0000E1E6E000E1D6EC3
:1013C00000D019A415D01D501E10D8B426D00DC0C1
:1013D000D9FF0EC0DAFF300EDF6E0D4A0E2A1D0651
:1013E000D8A01E061D501E10D8B417D0F0D715D0A7
:1013F0001D501E10D8B411D00DC0D9FF0EC0DAFF99
:10140000200EDF6E0D4A0E2A1D06D8A01E061D50A6
:101410001E10D8B402D0F0D700D01FC01CF02AD0C4
:101420001C50020D010EF324F66E0F0EF420F76E21
:101430000900F5CF03F00A00F5CF04F01AC001F05F
:101440001BC002F04DEC0DF001C008F002C009F025
:10145000000E0B6E0A0E0A6EA5EC0DF00850300F50
:101460001F6E0DC0D9FF0EC0DAFF1FC0DFFF0D4A8F
:101470000E2A00D01C061C28D8B402D0D1D700D028
:101480000FC0F6FF10C0F7FF0F4A102A0800F5CF73
:101490001FF01F50D8B402D0DCD600D00DC0D9FF49
:1014A0000EC0DAFF000EDF6E12001200ADEC0EF07F
:1014B000A38036C001F037C002F0000E046E0A0EA1
:1014C000036E87EC0CF001504C6E4C500A0DF3503B
:1014D000000836244D6E4C50100DF3504D243E6ED6
:1014E00058C001F059C002F0000E046E0A0E036EDF
:1014F00087EC0CF001504A6E4A500A0DF350000878
:1015000058244B6E4A50100DF3504B243F6E54C07C
:1015100001F055C002F0000E046E0A0E036E87EC57
:101520000CF00150466E46500A0DF350000854244A
:10153000476E4650100DF3504724406E4EC001F0E8
:101540004FC002F0000E046E0A0E036E87EC0CF022
:101550000150416E41500A0DF35000084E24426E76
:101560004150100DF35042243C6E56C001F057C05C
:1015700002F0000E046E0A0E036E87EC0CF00150B0
:10158000486E48500A0DF35000085624496E4850E2
:10159000100DF35049243B6E50C001F051C002F0D1
:1015A000000E046E0A0E036E87EC0CF00150446EC0
:1015B00044500A0DF35000085024456E4450100D5D
:1015C000F35045243A6E52C043F052C039F03D0EFC
:1015D000016E000E026E010E036E9DEC0BF0390ED3
:1015E000016E000E026E010E036EFAEC0AF00F019E
:1015F0003F8F1200000E066E20EE02F00150D92639
:101600000250DA22130EDF60120020EE02F00150C9
:10161000D9260250DA22DF50D8B4120020EE01F0B1
:101620000150D9260250DA22320EDF60120020EE7D
:1016300001F00150D9260250DA22DF50D8B412004E
:1016400020EE03F00150D9260250DA22990EDF6411
:1016500002D01200120020EE03F00150D9260250F1
:10166000DA22DF50076E20EE01F00150D926025039
:10167000DA22DF500A6E20EE02F00150D926025025
:10168000DA22DF500B6E0350D8B402D0F29C00D0A7
:10169000000E3FBB010E096E0950D8A403D0ADEC7B
:1016A0000EF000D0000E3FBF010E056E0550D8B4FD
:1016B00007D0000E91BE010E066E0F013F9F00D0B5
:1016C000FC0E0F013F170F013F8198CF0CF099CF0F
:1016D0000DF001C0D9FF02C0DAFFDF500D6EFC0E25
:1016E0000F013F17030E0F013F1307C098FF08C0FB
:1016F00099FF0AC098FF0BC099FF0CC098FF0DC05E
:1017000099FF0550D8B40DD00F013F8F0650D8B4C3
:1017100002D0918E00D00950D8B409D0ADEC0EF0B3
:1017200006D00950D8A403D00F013F9B00D003502E
:10173000D8B41200F29C12001200000E066E20EEC9
:1017400002F00150D9260250DA225A0EDF60120050
:1017500020EE01F00150D9260250DA225A0EDF6045
:10176000120020EE03F00150D9260250DA22240E96
:10177000DF6402D01200120020EE02F00150D926E0
:101780000250DA22DF50096E20EE01F00150D92616
:101790000250DA22DF50086E0350D8B402D0F29C17
:1017A00000D0000E3FBB010E076E0750D8A403D037
:1017B000ADEC0EF000D0000E3FBF010E056E0550DF
:1017C000D8B407D0000E91BE010E066E0F013F9FE8
:1017D00000D0FC0E0F013F170F013F8198CF0AF098
:1017E00099CF0BF020EE03F00150D9260250DA22F7
:1017F000DF500A6EFC0E0F013F170F013F810AC038
:1018000098FF0BC099FF08C098FF09C099FF0550C9
:10181000D8B40DD00F013F8F0650D8B402D0918EAE
:1018200000D00750D8B409D0ADEC0EF006D0075068
:10183000D8A403D00F013F9B00D00350D8B41200AE
:10184000F28C12001200F1EC0DF064EC0EF000D0FE
:10185000000E246E000E256E000E246E030E24640E
:1018600001D01ED0000E256E030E256401D016D0C7
:101870002450100D000E216E010E226EF350212611
:10188000F45022222550010DF3502124D96EF4503A
:101890002220DA6E000EDF6E252AE6D7242ADED754
:1018A000B5EC07F0236E100E2318D8A4D1D7010E83
:1018B000056E010E78EC0EF00F0E096E0F0E0A6E1B
:1018C0007BEC0DF0010E056E010E78EC0EF0410E72
:1018D000096E0F0E0A6E7BEC0DF0020E056E010E06
:1018E00078EC0EF04E0E096E0F0E0A6E7BEC0DF0CA
:1018F000000E236E000E386EFF0E216E8A0EE82E4B
:10190000FED7212EFCD700D0A3D700EF00F0000EA9
:10191000066E04AE07D0036C041ED8B0042A010E74
:10192000066E00D002AE07D0016C021ED8B0022AAB
:10193000010E061A00D0000E086E000E076E03504E
:101940000410D8B421D0010E056E05D0D89003360E
:101950000436052A00D004BE02D0F8D700D0D890B3
:10196000073608360350015C04500258D8A006D050
:101970000350015E0450025A078000D0D890043210
:101980000332052EECD700D00650D8B405D0076C32
:10199000081ED8B0082A00D007C001F008C002F025
:1019A00012001200939693948A968A949398939A2D
:1019B000939C939E0A0E9BEC0EF00A0E9BEC0EF08D
:1019C0000A0E9BEC0EF0000E056E020E056401D0AF
:1019D00008D0030E12EC0DF00A0E9BEC0EF0052A57
:1019E000F4D7020E12EC0DF0000E056E030E056426
:1019F00002D0120012000550010D0B0EF324F66EFA
:101A00000F0EF420F76E0800F5CF03F0000E37EC50
:101A10000EF00A0E9BEC0EF0052A030E0564EBD7C0
:101A200012001200026E02A003D0016A012A01D046
:101A3000016A013A8A500118EF0B01188A6E02A25E
:101A400003D0016A012A01D0016A013A01468A5095
:101A50000118DF0B01188A6E02A403D0016A012A63
:101A600001D0016A013A014601468A500118BF0BB4
:101A700001188A6E02A603D0016A012A01D0016A08
:101A8000013201328A5001187F0B01188A6E00F072
:101A90008A8400F000F08A941200000E066E000E98
:101AA000056E03500410D8B421D0010E076E05D086
:101AB000D89003360436072A00D004BE02D0F8D7E7
:101AC00000D0D890053606360350015C0450025809
:101AD000D8A006D00350015E0450025A058000D001
:101AE000D89004320332072EECD700D005C001F0A5
:101AF00006C002F0120015D009C0F6FF0AC0F7FFB9
:101B0000F86A0E0EF76403D00800F55005D0F6CF42
:101B1000E9FFF7CFEAFFEF50CBEC0DF0094A0A2AB4
:101B200000D009C0F6FF0AC0F7FFF86A0E0EF7648E
:101B300003D00800F55005D0F6CFE9FFF7CFEAFF54
:101B4000EF500009D8A4D8D712000A500B10D8B40F
:101B50001DD0010E0C6E05D0D8900A360B360C2A1B
:101B600000D00BBE02D0F8D700D00A50085C0B5052
:101B70000958D8A005D00A50085E0B50095A00D069
:101B8000D8900B320A320C2EF0D700D008C008F0E3
:101B900009C009F01200086E18D0010E036E000E85
:101BA00037EC0EF01200020E056E010E78EC0EF00E
:101BB0001200100E036E000E37EC0EF0120008C07B
:101BC00003F0010E37EC0EF012000850080AD8B4EA
:101BD000F0D7020AD8B4E7D7060AD8B4DED7EFD7D1
:101BE00012009B8E9B9CD388D38AD38CD390D392A4
:101BF000F00E926E000E936E070E946E0F01486900
:101C00000F0149692D0EC26E100EC16E0F013F8F7C
:101C10000F013F8BCD8656EC0AF0D2EC0CF00C0E87
:101C2000B6EC0EF08A828A80120000EE60F02C0E74
:101C3000EE6AE806FDE15A6A00EE26F01B0EEE6A37
:101C4000E806FDE17A0EF66E1D0EF76E000EF86ED8
:101C500000EE4EF010EE0CF00900F5CFEEFFE5506F
:101C6000E150FAE1000EF86E000123EF0CF0046E73
:101C70008A96020EA4EC0EF09398939A939C939EEE
:101C80000450D8B402D08A8601D08A9600F0033876
:101C90000F0B12EC0DF003500F0B12EC0DF01200B5
:101CA00001500302F3CF05F0F4CF06F00150040217
:101CB000F350062602500302F350062605C001F039
:101CC00006C002F0120012000C0EB6EC0EF0010E6F
:101CD000056E010E78EC0EF0300E096E0F0E0A6ED6
:101CE0007BEC0DF0020E056E010E78EC0EF012008A
:101CF000066E0504D8B402D0400E01D0000E076E67
:101D000000D00604072607508009036E000E37EC4A
:101D10000EF01200036E000E026E3A0E036006D043
:101D20002F0E036403D0010E026E00D002C001F03A
:101D3000013012001200016EFA0E00F0E82EFDD7FD
:101D4000012EFAD712001200016E210EE82EFED7E6
:101D500000F0012EFAD712001200F29C550EA76E69
:101D6000AA0EA76E0F013F8BF28C1200056E05C004
:101D700003F0000E37EC0EF012000F000800030015
:061D8000120009001E0024
:08FFF800AEF718FFF3F8FFF16A
:00000001FF
