:040000009AEF0DF076
:100F00000001000A006400E8031027280C010625F0
:100F10003032752F253032752F253032750025304F
:100F200032753A253032753A25303275002020204E
:100F300020202000554E494D49430000110E1B6EE4
:100F4000000E1C6E17D1250E2318D8B409D00DC081
:100F5000D9FF0EC0DAFF23C0DFFF0D4A0E2A0AD1E7
:100F6000000E226E000E216E000E1D6E05D01D8437
:100F70000F4A102A01D00BD00FC0F6FF10C0F7FFA8
:100F80000800F550300AD8B4F2D701D0F5D70FC019
:100F9000F6FF10C0F7FF0800F55018EC0EF0D8A0CF
:100FA0003AD0000E226E000E216E00D021C001F05A
:100FB00022C002F0000E046E0A0E036EF2EC0DF079
:100FC00001C021F002C022F0D00E176EFF0E186E85
:100FD0000FC0F6FF10C0F7FF0800F550196E1A6A2F
:100FE0001750192618501A22195021261A50222259
:100FF0000F4A102A0FC0F6FF10C0F7FF0800F55087
:1010000018EC0EF0D8A007D0D1D705D0C1D0B2D0FF
:10101000C00E1D1211D00FC0F6FF10C0F7FF0F4A0F
:10102000102A0800F5CF23F02350000AD8B4B0D01E
:10103000750AD8B4EDD79ED01BC0D9FF1CC0DAFF0B
:10104000DECF1EF0DDCF1FF0020E1B26000E1C228D
:10105000010E236E050E2318D8B416D001D014D07B
:101060002350020D010EF324F66E0F0EF420F76EDE
:101070000900F5501E5C0900F5501F58D8A004D097
:1010800001D002D0232AE6D7800E23BE7F0E176E32
:101090002150235C2250800A1758D8B007D0235023
:1010A000215E000E23BEFF0E225A05D0000E226ED6
:1010B000000E216E00D01DA415D021502210D8B4EE
:1010C00026D00DC0D9FF0EC0DAFF300EDF6E0D4AFC
:1010D0000E2A2106D8A0220621502210D8B417D0FB
:1010E000F0D715D021502210D8B411D00DC0D9FF9F
:1010F0000EC0DAFF200EDF6E0D4A0E2A2106D8A0A0
:10110000220621502210D8B402D0F0D700D023C03C
:1011100020F02AD02050020D010EF324F66E0F0E9F
:10112000F420F76E0900F5CF03F00A00F5CF04F0C4
:101130001EC001F01FC002F0D2EC0CF001C008F09C
:1011400002C009F0000E0B6E0A0E0A6E2AEC0DF0BA
:101150000850300F236E0DC0D9FF0EC0DAFF23C038
:10116000DFFF0D4A0E2A00D020062028D8B402D076
:10117000D1D700D00FC0F6FF10C0F7FF0F4A102ADA
:101180000800F5CF23F02350D8B402D0DCD600D02D
:101190000DC0D9FF0EC0DAFF000EDF6E1200120084
:1011A0003BEC0EF0A38035C001F036C002F0000E1B
:1011B000046E0A0E036E8EEC0BF001504A6E4A501C
:1011C0000A0DF350000835244B6E4A50100DF350B1
:1011D0004B243C6E56C001F057C002F0000E046E66
:1011E0000A0E036E8EEC0BF00150486E48500A0D4B
:1011F000F35000085624496E4850100DF35049240E
:101200003D6E52C001F053C002F0000E046E0A0E93
:10121000036E8EEC0BF00150446E44500A0DF350F7
:1012200000085224456E4450100DF35045243E6E84
:101230004CC001F04DC002F0000E046E0A0E036EA9
:101240008EEC0BF001503F6E3F500A0DF35000083A
:101250004C24406E3F50100DF35040243A6E54C061
:1012600001F055C002F0000E046E0A0E036E8EEC03
:101270000BF00150466E46500A0DF35000085424FE
:10128000476E4650100DF3504724396E4EC001F0A2
:101290004FC002F0000E046E0A0E036E8EEC0BF0CF
:1012A0000150426E42500A0DF35000084E24436E26
:1012B0004250100DF3504324386E50C041F050C0DE
:1012C00037F03B0E016E000E026E010E036E17EC3E
:1012D0000AF0370E016E000E026E010E036E74EC02
:1012E00009F00F013F8F1200000E066E20EE02F093
:1012F0000150D9260250DA22130EDF60120020EED0
:1013000002F00150D9260250DA22DF50D8B4120080
:1013100020EE01F00150D9260250DA22320EDF60B1
:10132000120020EE01F00150D9260250DA22DF50DF
:10133000D8B4120020EE03F00150D9260250DA2270
:10134000990EDF6402D01200120020EE03F001506B
:10135000D9260250DA22DF50076E20EE01F001504C
:10136000D9260250DA22DF500A6E20EE02F0015038
:10137000D9260250DA22DF500B6E0350D8B402D0C7
:10138000F29C00D0000E3FBB010E096E0950D8A49C
:1013900003D03BEC0EF000D0000E3FBF010E056EF7
:1013A0000550D8B407D0000E91BE010E066E0F0195
:1013B0003F9F00D0FC0E0F013F170F013F8198CFD8
:1013C0000CF099CF0DF001C0D9FF02C0DAFFDF5059
:1013D0000D6EFC0E0F013F17030E0F013F1307C0E8
:1013E00098FF08C099FF0AC098FF0BC099FF0CC076
:1013F00098FF0DC099FF0550D8B40DD00F013F8F55
:101400000650D8B402D0918E00D00950D8B409D07B
:101410003BEC0EF006D00950D8A403D00F013F9B3F
:1014200000D00350D8B41200F29C12001200000E3B
:10143000066E20EE02F00150D9260250DA225A0E32
:10144000DF60120020EE01F00150D9260250DA22AE
:101450005A0EDF60120020EE03F00150D926025030
:10146000DA22240EDF6402D01200120020EE02F015
:101470000150D9260250DA22DF50096E20EE01F029
:101480000150D9260250DA22DF50086E0350D8B43A
:1014900002D0F29C00D0000E3FBB010E076E075039
:1014A000D8A403D03BEC0EF000D0000E3FBF010EDD
:1014B000056E0550D8B407D0000E91BE010E066E21
:1014C0000F013F9F00D0FC0E0F013F170F013F811E
:1014D00098CF0AF099CF0BF020EE03F00150D926F7
:1014E0000250DA22DF500A6EFC0E0F013F170F0187
:1014F0003F810AC098FF0BC099FF08C098FF09C040
:1015000099FF0550D8B40DD00F013F8F0650D8B4C5
:1015100002D0918E00D00750D8B409D03BEC0EF029
:1015200006D00750D8A403D00F013F9B00D0035032
:10153000D8B41200F28C120012000C0E44EC0EF023
:10154000010E056E010E06EC0EF0340E096E0F0E44
:101550000A6E00EC0DF0780E0D6E000E0E6E0F0E82
:101560000F6E0F0E106E4EC011F04FC012F054C02F
:1015700013F055C014F04CC015F04DC016F09EECA1
:1015800007F0010E056E090E06EC0EF0780E096EDE
:10159000000E0A6E00EC0DF0780E0D6E000E0E6E51
:1015A0001E0E0F6E0F0E106E52C011F053C012F0CF
:1015B00056C013F057C014F035C015F036C016F001
:1015C0009EEC07F0020E056E010E06EC0EF0780E92
:1015D000096E000E0A6E00EC0DF02B4A2C2A2CBE70
:1015E00006D02C5010E1070E2B5CD8B00CD0010EA9
:1015F000056E010E06EC0EF0340E096E0F0E0A6E2B
:1016000000EC0DF000D02CBE12002C5004E1070EAF
:101610002B5CD8A012000B0E2B182C10D8A405D0D0
:10162000000E2C6E000E2B6E00D0010E056E010E0A
:1016300006EC0EF02D0E096E0F0E0A6E00EC0DF08A
:10164000120012003B0E016E000E026E9BEC0CF0BD
:101650003C500F0B4B6E3C380F0B0F0B4A6E3D503E
:101660000F0B496E3D380F0B0F0B486E3E500F0BA2
:10167000456E3E380F0B0F0B446E370E016E000E99
:10168000026ED9EC0BF038500F0B436E38380F0B4D
:101690000F0B426E39500F0B476E39380F0B0F0B83
:1016A000466E37C041F03A500F0B406E3A380F0B80
:1016B0000F0B3F6E4A500A0D4B50F324356E000E4F
:1016C000F420366E48500A0D4950F324566E000E31
:1016D000F420576E44500A0D4550F324526E000E0C
:1016E000F420536E42500A0D4350F3244E6E000E08
:1016F000F4204F6E41C050F0516A46500A0D4750D9
:10170000F324546E000EF420556E3F500A0D4050E5
:10171000F3244C6E000EF4204D6E1200000E066E87
:1017200004AE07D0036C041ED8B0042A010E066E66
:1017300000D002AE07D0016C021ED8B0022A010E02
:10174000061A00D0000E086E000E076E035004103B
:10175000D8B421D0010E056E05D0D89003360436DA
:10176000052A00D004BE02D0F8D700D0D8900736A2
:1017700008360350015C04500258D8A006D003502C
:10178000015E0450025A078000D0D8900432033220
:10179000052EECD700D00650D8B405D0076C081E33
:1017A000D8B0082A00D007C001F008C002F012002B
:1017B0001200FC0E0F013F17030E0F013F1398CFCD
:1017C0000BF099CF0CF098CF0DF099CF0EF098CF89
:1017D0000FF099CF10F0FC0E0F013F17030E0F0111
:1017E0003F1398CF03F099CF04F098CF05F099CF2D
:1017F00006F098CF07F099CF08F005500D18D8A43F
:10180000D8D720EE01F00150D9260250DA220DC0BF
:10181000DFFF20EE02F00150D9260250DA220EC07E
:10182000DFFF01C0D9FF02C0DAFF10C0DFFF20EEEA
:1018300003F00150D9260250DA220BC0DFFF12005C
:10184000939693948A968A949398939A939C939E52
:101850000A0E29EC0EF00A0E29EC0EF00A0E29EC05
:101860000EF0000E056E020E056401D008D0030EC6
:1018700060EC0CF00A0E29EC0EF0052AF4D7020EEB
:1018800060EC0CF0000E056E030E056402D0120031
:1018900012000550010D0B0EF324F66E0F0EF4200E
:1018A000F76E0800F5CF03F0000ED9EC0DF00A0E2C
:1018B00029EC0EF0052A030E0564EBD71200120086
:1018C000026E02A003D0016A012A01D0016A013A26
:1018D0008A500118EF0B01188A6E02A203D0016A28
:1018E000012A01D0016A013A01468A500118DF0B32
:1018F00001188A6E02A403D0016A012A01D0016A8C
:10190000013A014601468A500118BF0B01188A6E40
:1019100002A603D0016A012A01D0016A0132013214
:101920008A5001187F0B01188A6E00F08A8400F03B
:1019300000F08A941200FC0E0F013F170F013F8147
:1019400098CF0FF099CF10F098CF11F099CF12F0F7
:10195000FC0E0F013F170F013F8198CF07F099CF81
:1019600008F098CF09F099CF0AF009501118D8A4BF
:10197000E2D720EE03F00150D9260250DA220FC040
:10198000DFFF20EE02F00150D9260250DA2212C009
:10199000DFFF20EE01F00150D9260250DA2211C0FB
:1019A000DFFF1200000E066E000E056E03500410DD
:1019B000D8B421D0010E076E05D0D8900336043676
:1019C000072A00D004BE02D0F8D700D0D890053640
:1019D00006360350015C04500258D8A006D00350CC
:1019E000015E0450025A058000D0D89004320332C0
:1019F000072EECD700D005C001F006C002F012009F
:101A000015D009C0F6FF0AC0F7FFF86A0E0EF7649A
:101A100003D00800F55005D0F6CFE9FFF7CFEAFF75
:101A2000EF5050EC0DF0094A0A2A00D009C0F6FF29
:101A30000AC0F7FFF86A0E0EF76403D00800F550ED
:101A400005D0F6CFE9FFF7CFEAFFEF500009D8A4A1
:101A5000D8D712000A500B10D8B41DD0010E0C6E4E
:101A600005D0D8900A360B360C2A00D00BBE02D017
:101A7000F8D700D00A50085C0B500958D8A005D000
:101A80000A50085E0B50095A00D0D8900B320A3227
:101A90000C2EF0D700D008C008F009C009F01200E1
:101AA000086E18D0010E036E000ED9EC0DF0120076
:101AB000020E056E010E06EC0EF01200100E036E03
:101AC000000ED9EC0DF0120008C003F0010ED9ECA5
:101AD0000DF012000850080AD8B4F0D7020AD8B4A2
:101AE000E7D7060AD8B4DED7EFD712009B8E9B9CAF
:101AF000D388D38AD38CD390D3929268000E936EFE
:101B0000070E946E0F014869970E0F01486F2D0E56
:101B1000C26E100EC16E0F013F8F0F013F8BCD863D
:101B2000D0EC08F020EC0CF00C0E44EC0EF08A9295
:101B30008A90120000EE60F02C0EEE6AE806FDE1DD
:101B4000586A00EE25F01A0EEE6AE806FDE1960EE0
:101B5000F66E1C0EF76E000EF86E00EE4CF010EEF6
:101B60000CF00900F5CFEEFFE550E150FAE1000E70
:101B7000F86E0001BCEF0DF076EC0DF000D022EC19
:101B80000BF09DEC0AF080B202D08A7201D08A92EA
:101B900080B002D08A8002D08A9000D0FF0E246EDE
:101BA0008A0EE82EFED7242EFCD700D0E8D700EF0F
:101BB00000F0046E8A96020E32EC0EF09398939A1F
:101BC000939C939E0450D8B402D08A8601D08A9602
:101BD00000F003380F0B60EC0CF003500F0B60ECBF
:101BE0000CF0120001500302F3CF05F0F4CF06F021
:101BF00001500402F350062602500302F350062659
:101C000005C001F006C002F012001200066E0504C5
:101C1000D8B402D0400E01D0000E076E00D00604EA
:101C2000072607508009036E000ED9EC0DF0120054
:101C3000036E000E026E3A0E036006D02F0E036490
:101C400003D0010E026E00D002C001F0013012007C
:101C50001200016EFA0E00F0E82EFDD7012EFAD721
:101C600012001200016E210EE82EFED700F0012EA8
:101C7000FAD712001200F29C550EA76EAA0EA76E9C
:101C80000F013F8BF28C1200056E05C003F0000EB1
:101C9000D9EC0DF012000F0008000300120009003B
:021CA0001E0024
:08FFF800AEF718FFF3F8FFF16A
:00000001FF
