:0400000009EF0EF006
:100F00000001000A006400E8031027280C010625F0
:100F10003032752F253032752F253032750025304F
:100F200032753A253032753A25303275002020204E
:100F300020202000554E494D49430000110E1B6EE4
:100F4000000E1C6E17D1250E2318D8B409D00DC081
:100F5000D9FF0EC0DAFF23C0DFFF0D4A0E2A0AD1E7
:100F6000000E226E000E216E000E1D6E05D01D8437
:100F70000F4A102A01D00BD00FC0F6FF10C0F7FFA8
:100F80000800F550300AD8B4F2D701D0F5D70FC019
:100F9000F6FF10C0F7FF0800F5506AEC0EF0D8A07D
:100FA0003AD0000E226E000E216E00D021C001F05A
:100FB00022C002F0000E046E0A0E036E44EC0EF026
:100FC00001C021F002C022F0D00E176EFF0E186E85
:100FD0000FC0F6FF10C0F7FF0800F550196E1A6A2F
:100FE0001750192618501A22195021261A50222259
:100FF0000F4A102A0FC0F6FF10C0F7FF0800F55087
:101000006AEC0EF0D8A007D0D1D705D0C1D0B2D0AD
:10101000C00E1D1211D00FC0F6FF10C0F7FF0F4A0F
:10102000102A0800F5CF23F02350000AD8B4B0D01E
:10103000750AD8B4EDD79ED01BC0D9FF1CC0DAFF0B
:10104000DECF1EF0DDCF1FF0020E1B26000E1C228D
:10105000010E236E050E2318D8B416D001D014D07B
:101060002350020D010EF324F66E0F0EF420F76EDE
:101070000900F5501E5C0900F5501F58D8A004D097
:1010800001D002D0232AE6D7800E23BE7F0E176E32
:101090002150235C2250800A1758D8B007D0235023
:1010A000215E000E23BEFF0E225A05D0000E226ED6
:1010B000000E216E00D01DA415D021502210D8B4EE
:1010C00026D00DC0D9FF0EC0DAFF300EDF6E0D4AFC
:1010D0000E2A2106D8A0220621502210D8B417D0FB
:1010E000F0D715D021502210D8B411D00DC0D9FF9F
:1010F0000EC0DAFF200EDF6E0D4A0E2A2106D8A0A0
:10110000220621502210D8B402D0F0D700D023C03C
:1011100020F02AD02050020D010EF324F66E0F0E9F
:10112000F420F76E0900F5CF03F00A00F5CF04F0C4
:101130001EC001F01FC002F041EC0DF001C008F02C
:1011400002C009F0000E0B6E0A0E0A6E99EC0DF04B
:101150000850300F236E0DC0D9FF0EC0DAFF23C038
:10116000DFFF0D4A0E2A00D020062028D8B402D076
:10117000D1D700D00FC0F6FF10C0F7FF0F4A102ADA
:101180000800F5CF23F02350D8B402D0DCD600D02D
:101190000DC0D9FF0EC0DAFF000EDF6E1200120084
:1011A00097EC0EF0A38037C001F038C002F0000EBB
:1011B000046E0A0E036EFDEC0BF001504C6E4C50A9
:1011C0000A0DF350000837244D6E4C50100DF350AB
:1011D0004D243E6E58C001F059C002F0000E046E5E
:1011E0000A0E036EFDEC0BF001504A6E4A500A0DD8
:1011F000F350000858244B6E4A50100DF3504B2406
:101200003F6E54C001F055C002F0000E046E0A0E8D
:10121000036EFDEC0BF00150466E46500A0DF35084
:1012200000085424476E4650100DF3504724406E7A
:101230004EC001F04FC002F0000E046E0A0E036EA5
:10124000FDEC0BF00150416E41500A0DF3500008C7
:101250004E24426E4150100DF35042243C6E56C055
:1012600001F057C002F0000E046E0A0E036EFDEC92
:101270000BF00150486E48500A0DF35000085624F8
:10128000496E4850100DF35049243B6E50C001F098
:1012900051C002F0000E046E0A0E036EFDEC0BF05E
:1012A0000150446E44500A0DF35000085024456E1E
:1012B0004450100DF35045243A6E52C043F052C0D2
:1012C00039F03D0E016E000E026E010E036E17EC3A
:1012D0000AF0390E016E000E026E010E036E74EC00
:1012E00009F00F013F8F1200000E066E20EE02F093
:1012F0000150D9260250DA22130EDF60120020EED0
:1013000002F00150D9260250DA22DF50D8B4120080
:1013100020EE01F00150D9260250DA22320EDF60B1
:10132000120020EE01F00150D9260250DA22DF50DF
:10133000D8B4120020EE03F00150D9260250DA2270
:10134000990EDF6402D01200120020EE03F001506B
:10135000D9260250DA22DF50076E20EE01F001504C
:10136000D9260250DA22DF500A6E20EE02F0015038
:10137000D9260250DA22DF500B6E0350D8B402D0C7
:10138000F29C00D0000E3FBB010E096E0950D8A49C
:1013900003D097EC0EF000D0000E3FBF010E056E9B
:1013A0000550D8B407D0000E91BE010E066E0F0195
:1013B0003F9F00D0FC0E0F013F170F013F8198CFD8
:1013C0000CF099CF0DF001C0D9FF02C0DAFFDF5059
:1013D0000D6EFC0E0F013F17030E0F013F1307C0E8
:1013E00098FF08C099FF0AC098FF0BC099FF0CC076
:1013F00098FF0DC099FF0550D8B40DD00F013F8F55
:101400000650D8B402D0918E00D00950D8B409D07B
:1014100097EC0EF006D00950D8A403D00F013F9BE3
:1014200000D00350D8B41200F29C12001200000E3B
:10143000066E20EE02F00150D9260250DA225A0E32
:10144000DF60120020EE01F00150D9260250DA22AE
:101450005A0EDF60120020EE03F00150D926025030
:10146000DA22240EDF6402D01200120020EE02F015
:101470000150D9260250DA22DF50096E20EE01F029
:101480000150D9260250DA22DF50086E0350D8B43A
:1014900002D0F29C00D0000E3FBB010E076E075039
:1014A000D8A403D097EC0EF000D0000E3FBF010E81
:1014B000056E0550D8B407D0000E91BE010E066E21
:1014C0000F013F9F00D0FC0E0F013F170F013F811E
:1014D00098CF0AF099CF0BF020EE03F00150D926F7
:1014E0000250DA22DF500A6EFC0E0F013F170F0187
:1014F0003F810AC098FF0BC099FF08C098FF09C040
:1015000099FF0550D8B40DD00F013F8F0650D8B4C5
:1015100002D0918E00D00750D8B409D097EC0EF0CD
:1015200006D00750D8A403D00F013F9B00D0035032
:10153000D8B41200F28C120012000C0EA0EC0EF0C7
:10154000010E056E010E58EC0EF0340E096E0F0EF2
:101550000A6E6FEC0DF0780E0D6E000E0E6E0F0E13
:101560000F6E0F0E106E50C011F051C012F056C029
:1015700013F057C014F04EC015F04FC016F09EEC9B
:1015800007F0010E056E090E58EC0EF0780E096E8C
:10159000000E0A6E6FEC0DF0780E0D6E000E0E6EE2
:1015A0001E0E0F6E0F0E106E54C011F055C012F0CB
:1015B00058C013F059C014F037C015F038C016F0F9
:1015C0009EEC07F0020E056E010E58EC0EF0780E40
:1015D000096E000E0A6E6FEC0DF02D4A2E2A2EBEFB
:1015E00006D02E5010E1070E2D5CD8B00CD0010EA5
:1015F000056E010E58EC0EF0340E096E0F0E0A6ED9
:101600006FEC0DF000D02EBE12002E5004E1070E3C
:101610002D5CD8A012000B0E2D182E10D8A405D0CA
:10162000000E2E6E000E2D6E00D0010E056E010E06
:1016300058EC0EF02D0E096E0F0E0A6E6FEC0DF0C9
:1016400012001200E5EC0DF0090E266E010E256E5B
:1016500000D091EC0BF09DEC0AF0010E056E010E2E
:101660007BEC0EF025C005F0265058EC0EF080B251
:1016700046D0262A25C005F0265058EC0EF0820EE2
:10168000246EDE0EE82EFED7242EFCD70B0E261875
:10169000D8A403D02504D8B417D00E0E2618D8A489
:1016A00003D02504D8B410D0030E2618D8A404D033
:1016B000020E2518D8B408D0060E2618D8A40BD0D0
:1016C000020E2518D8A407D0000E056E000E7BEC84
:1016D0000EF0262A00D0110E2618D8A405D0010E2F
:1016E000266E020E256E00D0020E2518D8A408D052
:1016F000090E2618D8A404D0010E256E01D08A92B6
:1017000080B002D08A8002D08A9000D0FF0E246E72
:101710008A0EE82EFED7242EFCD700D09AD700EFF1
:1017200000F03D0E016E000E026E0AEC0DF03E5010
:101730000F0B4D6E3E380F0B0F0B4C6E3F500F0BC7
:101740004B6E3F380F0B0F0B4A6E40500F0B476E1E
:1017500040380F0B0F0B466E390E016E000E026EF5
:1017600048EC0CF03A500F0B456E3A380F0B0F0B4C
:10177000446E3B500F0B496E3B380F0B0F0B486EFE
:1017800039C043F03C500F0B426E3C380F0B0F0B2F
:10179000416E4C500A0D4D50F324376E000EF4206C
:1017A000386E4A500A0D4B50F324586E000EF42048
:1017B000596E46500A0D4750F324546E000EF42023
:1017C000556E44500A0D4550F324506E000EF4201F
:1017D000516E43C052F0536A48500A0D4950F324E9
:1017E000566E000EF420576E41500A0D4250F324FD
:1017F0004E6E000EF4204F6E1200000E066E04AE08
:1018000007D0036C041ED8B0042A010E066E00D067
:1018100002AE07D0016C021ED8B0022A010E061AD1
:1018200000D0000E086E000E076E03500410D8B4EE
:1018300021D0010E056E05D0D89003360436052A56
:1018400000D004BE02D0F8D700D0D89007360836B2
:101850000350015C04500258D8A006D00350015E2A
:101860000450025A078000D0D89004320332052E6B
:10187000ECD700D00650D8B405D0076C081ED8B0FD
:10188000082A00D007C001F008C002F012001200C0
:10189000FC0E0F013F17030E0F013F1398CF0BF003
:1018A00099CF0CF098CF0DF099CF0EF098CF0FF0A4
:1018B00099CF10F0FC0E0F013F17030E0F013F13DD
:1018C00098CF03F099CF04F098CF05F099CF06F0A8
:1018D00098CF07F099CF08F005500D18D8A4D8D7A5
:1018E00020EE01F00150D9260250DA220DC0DFFFB0
:1018F00020EE02F00150D9260250DA220EC0DFFF9E
:1019000001C0D9FF02C0DAFF10C0DFFF20EE03F0F4
:101910000150D9260250DA220BC0DFFF1200939645
:1019200093948A968A949398939A939C939E0A0E82
:1019300085EC0EF00A0E85EC0EF00A0E85EC0EF02A
:10194000000E056E020E056401D008D0030ECFEC28
:101950000CF00A0E85EC0EF0052AF4D7020ECFEC3F
:101960000CF0000E056E030E056402D0120012008A
:101970000550010D0B0EF324F66E0F0EF420F76EDA
:101980000800F5CF03F0000E2BEC0EF00A0E85ECEC
:101990000EF0052A030E0564EBD712001200026E4A
:1019A00002A003D0016A012A01D0016A013A8A50DB
:1019B0000118EF0B01188A6E02A203D0016A012AF6
:1019C00001D0016A013A01468A500118DF0B011863
:1019D0008A6E02A403D0016A012A01D0016A013A89
:1019E000014601468A500118BF0B01188A6E02A6F3
:1019F00003D0016A012A01D0016A013201328A5002
:101A000001187F0B01188A6E00F08A8400F000F044
:101A10008A941200FC0E0F013F170F013F8198CFEF
:101A20000FF099CF10F098CF11F099CF12F0FC0E73
:101A30000F013F170F013F8198CF07F099CF08F0B2
:101A400098CF09F099CF0AF009501118D8A4E2D71D
:101A500020EE03F00150D9260250DA220FC0DFFF3A
:101A600020EE02F00150D9260250DA2212C0DFFF28
:101A700020EE01F00150D9260250DA2211C0DFFF1A
:101A80001200000E066E000E056E03500410D8B44E
:101A900021D0010E076E05D0D89003360436072AF0
:101AA00000D004BE02D0F8D700D0D8900536063654
:101AB0000350015C04500258D8A006D00350015EC8
:101AC0000450025A058000D0D89004320332072E09
:101AD000ECD700D005C001F006C002F0120015D00E
:101AE00009C0F6FF0AC0F7FFF86A0E0EF76403D0CC
:101AF0000800F55005D0F6CFE9FFF7CFEAFFEF5029
:101B0000BFEC0DF0094A0A2A00D009C0F6FF0AC04E
:101B1000F7FFF86A0E0EF76403D00800F55005D001
:101B2000F6CFE9FFF7CFEAFFEF500009D8A4D8D7E6
:101B300012000A500B10D8B41DD0010E0C6E05D047
:101B4000D8900A360B360C2A00D00BBE02D0F8D73C
:101B500000D00A50085C0B500958D8A005D00A5094
:101B6000085E0B50095A00D0D8900B320A320C2E66
:101B7000F0D700D008C008F009C009F01200086EC4
:101B800018D0010E036E000E2BEC0EF01200020EA8
:101B9000056E010E58EC0EF01200100E036E000ED2
:101BA0002BEC0EF0120008C003F0010E2BEC0EF02F
:101BB00012000850080AD8B4F0D7020AD8B4E7D700
:101BC000060AD8B4DED7EFD712009B8E9B9CD38831
:101BD000D38AD38CD390D3929268000E936E070E63
:101BE000946E0F014869970E0F01486F2D0EC26E5B
:101BF000100EC16E0F013F8F0F013F8BCD86D0ECD1
:101C000008F08FEC0CF00F0EA0EC0EF08A928A9088
:101C1000120000EE60F02C0EEE6AE806FDE15A6A52
:101C200000EE27F01A0EEE6AE806FDE14E0EF66EA3
:101C30001D0EF76E000EF86E00EE4EF010EE0CF07A
:101C40000900F5CFEEFFE550E150FAE1000EF86E25
:101C5000000122EF0BF0046E8A96020E8EEC0EF05D
:101C60009398939A939C939E0450D8B402D08A86FA
:101C700001D08A9600F003380F0BCFEC0CF0035024
:101C80000F0BCFEC0CF0120001500302F3CF05F064
:101C9000F4CF06F001500402F3500626025003026E
:101CA000F350062605C001F006C002F01200120033
:101CB000066E0504D8B402D0400E01D0000E076EA7
:101CC00000D00604072607508009036E000E2BEC97
:101CD0000EF01200036E000E026E3A0E036006D084
:101CE0002F0E036403D0010E026E00D002C001F07B
:101CF000013012001200066E0650062405100C0971
:101D0000036E000E2BEC0EF01200016EFA0E00F0C6
:101D1000E82EFDD7012EFAD712001200016E210E17
:101D2000E82EFED700F0012EFAD712001200F29C26
:101D3000550EA76EAA0EA76E0F013F8BF28C1200F4
:101D4000056E05C003F0000E2BEC0EF012000F0024
:0A1D500008000300120009001E0045
:08FFF800AEF718FFF3F8FFF16A
:00000001FF
